{
    "contractName": "FedX",
    "abi": [
        {
            "inputs": [],
            "stateMutability": "nonpayable",
            "type": "constructor"
        },
        {
            "anonymous": false,
            "inputs": [
                {
                    "indexed": false,
                    "internalType": "string",
                    "name": "msg",
                    "type": "string"
                }
            ],
            "name": "BusinessShutdownEvent",
            "type": "event"
        },
        {
            "anonymous": false,
            "inputs": [
                {
                    "indexed": false,
                    "internalType": "string",
                    "name": "msg",
                    "type": "string"
                }
            ],
            "name": "BuyEvent",
            "type": "event"
        },
        {
            "anonymous": false,
            "inputs": [
                {
                    "indexed": false,
                    "internalType": "string",
                    "name": "msg",
                    "type": "string"
                }
            ],
            "name": "ClaimRewardEvent",
            "type": "event"
        },
        {
            "anonymous": false,
            "inputs": [
                {
                    "indexed": false,
                    "internalType": "string",
                    "name": "msg",
                    "type": "string"
                }
            ],
            "name": "RegisterBusinessEvent",
            "type": "event"
        },
        {
            "anonymous": false,
            "inputs": [
                {
                    "indexed": false,
                    "internalType": "string",
                    "name": "msg",
                    "type": "string"
                }
            ],
            "name": "UpdateRewardConfigEvent",
            "type": "event"
        },
        {
            "inputs": [
                {
                    "internalType": "uint16",
                    "name": "",
                    "type": "uint16"
                }
            ],
            "name": "businesses",
            "outputs": [
                {
                    "internalType": "address",
                    "name": "owner",
                    "type": "address"
                },
                {
                    "internalType": "string",
                    "name": "name",
                    "type": "string"
                },
                {
                    "internalType": "uint256",
                    "name": "rewardThreshold",
                    "type": "uint256"
                },
                {
                    "internalType": "uint256",
                    "name": "rewardAmount",
                    "type": "uint256"
                },
                {
                    "internalType": "bool",
                    "name": "isActive",
                    "type": "bool"
                },
                {
                    "internalType": "address",
                    "name": "paymentAddress",
                    "type": "address"
                },
                {
                    "internalType": "string",
                    "name": "businessContext",
                    "type": "string"
                },
                {
                    "internalType": "uint256",
                    "name": "productPrice",
                    "type": "uint256"
                }
            ],
            "stateMutability": "view",
            "type": "function"
        },
        {
            "inputs": [
                {
                    "internalType": "uint16",
                    "name": "businessHash",
                    "type": "uint16"
                }
            ],
            "name": "buySomething",
            "outputs": [],
            "stateMutability": "payable",
            "type": "function"
        },
        {
            "inputs": [
                {
                    "internalType": "uint16",
                    "name": "businessHash",
                    "type": "uint16"
                }
            ],
            "name": "claimReward",
            "outputs": [
                {
                    "internalType": "string",
                    "name": "",
                    "type": "string"
                }
            ],
            "stateMutability": "nonpayable",
            "type": "function"
        },
        {
            "inputs": [],
            "name": "emitBusinessShutdown",
            "outputs": [
                {
                    "internalType": "string",
                    "name": "",
                    "type": "string"
                }
            ],
            "stateMutability": "nonpayable",
            "type": "function"
        },
        {
            "inputs": [],
            "name": "emitBuy",
            "outputs": [
                {
                    "internalType": "string",
                    "name": "",
                    "type": "string"
                }
            ],
            "stateMutability": "nonpayable",
            "type": "function"
        },
        {
            "inputs": [],
            "name": "emitClaimReward",
            "outputs": [
                {
                    "internalType": "string",
                    "name": "",
                    "type": "string"
                }
            ],
            "stateMutability": "nonpayable",
            "type": "function"
        },
        {
            "inputs": [],
            "name": "emitRegisterBusiness",
            "outputs": [
                {
                    "internalType": "string",
                    "name": "",
                    "type": "string"
                }
            ],
            "stateMutability": "nonpayable",
            "type": "function"
        },
        {
            "inputs": [],
            "name": "emitUpdateRewardConfig",
            "outputs": [
                {
                    "internalType": "string",
                    "name": "",
                    "type": "string"
                }
            ],
            "stateMutability": "nonpayable",
            "type": "function"
        },
        {
            "inputs": [],
            "name": "getBusinesses",
            "outputs": [
                {
                    "components": [
                        {
                            "internalType": "uint16",
                            "name": "businessHash",
                            "type": "uint16"
                        },
                        {
                            "components": [
                                {
                                    "internalType": "address",
                                    "name": "owner",
                                    "type": "address"
                                },
                                {
                                    "internalType": "string",
                                    "name": "name",
                                    "type": "string"
                                },
                                {
                                    "internalType": "uint256",
                                    "name": "rewardThreshold",
                                    "type": "uint256"
                                },
                                {
                                    "internalType": "uint256",
                                    "name": "rewardAmount",
                                    "type": "uint256"
                                },
                                {
                                    "internalType": "bool",
                                    "name": "isActive",
                                    "type": "bool"
                                },
                                {
                                    "internalType": "address",
                                    "name": "paymentAddress",
                                    "type": "address"
                                },
                                {
                                    "internalType": "string",
                                    "name": "businessContext",
                                    "type": "string"
                                },
                                {
                                    "internalType": "uint256",
                                    "name": "productPrice",
                                    "type": "uint256"
                                },
                                {
                                    "components": [
                                        {
                                            "internalType": "string",
                                            "name": "name",
                                            "type": "string"
                                        },
                                        {
                                            "internalType": "uint256",
                                            "name": "price",
                                            "type": "uint256"
                                        }
                                    ],
                                    "internalType": "struct FedX.Products[]",
                                    "name": "products",
                                    "type": "tuple[]"
                                }
                            ],
                            "internalType": "struct FedX.Business",
                            "name": "business",
                            "type": "tuple"
                        }
                    ],
                    "internalType": "struct FedX.BusinessEntry[]",
                    "name": "",
                    "type": "tuple[]"
                }
            ],
            "stateMutability": "view",
            "type": "function"
        },
        {
            "inputs": [
                {
                    "internalType": "uint16",
                    "name": "businessHash",
                    "type": "uint16"
                },
                {
                    "internalType": "address",
                    "name": "user",
                    "type": "address"
                }
            ],
            "name": "getPoints",
            "outputs": [
                {
                    "internalType": "uint256",
                    "name": "",
                    "type": "uint256"
                }
            ],
            "stateMutability": "view",
            "type": "function"
        },
        {
            "inputs": [
                {
                    "internalType": "uint16",
                    "name": "businessHash",
                    "type": "uint16"
                }
            ],
            "name": "getTransactionCount",
            "outputs": [
                {
                    "internalType": "uint256",
                    "name": "",
                    "type": "uint256"
                }
            ],
            "stateMutability": "view",
            "type": "function"
        },
        {
            "inputs": [
                {
                    "internalType": "uint16",
                    "name": "businessHash",
                    "type": "uint16"
                }
            ],
            "name": "getTransactions",
            "outputs": [
                {
                    "components": [
                        {
                            "internalType": "address",
                            "name": "user",
                            "type": "address"
                        },
                        {
                            "internalType": "uint256",
                            "name": "amount",
                            "type": "uint256"
                        },
                        {
                            "internalType": "uint256",
                            "name": "timestamp",
                            "type": "uint256"
                        }
                    ],
                    "internalType": "struct FedX.Transaction[]",
                    "name": "",
                    "type": "tuple[]"
                }
            ],
            "stateMutability": "view",
            "type": "function"
        },
        {
            "inputs": [
                {
                    "internalType": "string",
                    "name": "name",
                    "type": "string"
                },
                {
                    "internalType": "uint256",
                    "name": "rewardThreshold",
                    "type": "uint256"
                },
                {
                    "internalType": "uint256",
                    "name": "rewardAmount",
                    "type": "uint256"
                },
                {
                    "internalType": "address",
                    "name": "paymentAddress",
                    "type": "address"
                },
                {
                    "internalType": "string",
                    "name": "businessContext",
                    "type": "string"
                },
                {
                    "internalType": "uint256",
                    "name": "productPrice",
                    "type": "uint256"
                },
                {
                    "components": [
                        {
                            "internalType": "string",
                            "name": "name",
                            "type": "string"
                        },
                        {
                            "internalType": "uint256",
                            "name": "price",
                            "type": "uint256"
                        }
                    ],
                    "internalType": "struct FedX.Products[]",
                    "name": "products",
                    "type": "tuple[]"
                }
            ],
            "name": "registerBusiness",
            "outputs": [
                {
                    "internalType": "uint16",
                    "name": "",
                    "type": "uint16"
                }
            ],
            "stateMutability": "nonpayable",
            "type": "function"
        },
        {
            "inputs": [
                {
                    "internalType": "uint16",
                    "name": "businessHash",
                    "type": "uint16"
                }
            ],
            "name": "shutdownBusiness",
            "outputs": [],
            "stateMutability": "nonpayable",
            "type": "function"
        },
        {
            "inputs": [
                {
                    "internalType": "uint16",
                    "name": "",
                    "type": "uint16"
                },
                {
                    "internalType": "uint256",
                    "name": "",
                    "type": "uint256"
                }
            ],
            "name": "transactions",
            "outputs": [
                {
                    "internalType": "address",
                    "name": "user",
                    "type": "address"
                },
                {
                    "internalType": "uint256",
                    "name": "amount",
                    "type": "uint256"
                },
                {
                    "internalType": "uint256",
                    "name": "timestamp",
                    "type": "uint256"
                }
            ],
            "stateMutability": "view",
            "type": "function"
        },
        {
            "inputs": [
                {
                    "internalType": "uint16",
                    "name": "businessHash",
                    "type": "uint16"
                },
                {
                    "internalType": "uint256",
                    "name": "newThreshold",
                    "type": "uint256"
                },
                {
                    "internalType": "uint256",
                    "name": "newAmount",
                    "type": "uint256"
                }
            ],
            "name": "updateRewardConfig",
            "outputs": [],
            "stateMutability": "nonpayable",
            "type": "function"
        },
        {
            "inputs": [
                {
                    "internalType": "uint16",
                    "name": "",
                    "type": "uint16"
                },
                {
                    "internalType": "address",
                    "name": "",
                    "type": "address"
                }
            ],
            "name": "userPoints",
            "outputs": [
                {
                    "internalType": "uint256",
                    "name": "",
                    "type": "uint256"
                }
            ],
            "stateMutability": "view",
            "type": "function"
        }
    ],
    "bytecode": "60808060405234601e5761ffff195f54165f5561191790816100238239f35b5f80fdfe6080806040526004361015610012575f80fd5b5f3560e01c908163106b3fb0146115255750806314353a861461133e578063149e2864146112f05780631e54ca7e146112f057806323ba09d5146112bd5780632ac3e8d51461120a5780633ba18d7d14610eb157806363f622f114610dcb57806375d231d214610cd95780637ba6106e14610c6f5780639657736b14610c135780639a28b96d14610b14578063a6f873aa146109ca578063af2a37a2146108ed578063bf99dc141461082b578063c604878f146101d95763f2566de7146100d7575f80fd5b346101d5575f3660031901126101d5577ffc45a371b5151140abfbc865b449f1f0f21d4c748127097e3f88cec9be8d806d608060405160208152602860208201527f557365722077616e747320746f207570646174652074686569722072657761726040820152676420636f6e66696760c01b6060820152a16101d1604051610161608082611712565b604381527f4576656e7420746f20757064617465207468652072657761726420636f6e666960208201527f67206f6620796f757220627573696e65737320686173206265656e20656d69746040820152621d195960ea1b6060820152604051918291602083526020830190611610565b0390f35b5f80fd5b346101d55760e03660031901126101d5576004356001600160401b0381116101d5576102099036906004016117ee565b6064356001600160a01b03811691908290036101d5576084356001600160401b0381116101d55761023e9036906004016117ee565b9160c435906001600160401b0382116101d557366023830112156101d557816004013561026a81611834565b926102786040519485611712565b8184526024602085019260051b820101903682116101d55760248101925b8284106107c0575050505061ffff5f541692604051916102b5836116f6565b338352602083019182526040830190602435825260608401604435815260808501926001845260a0860192835260c0860198895260e086019460a43586526101008701978852885f52600160205260405f209660018060a01b039060018060a01b03905116166bffffffffffffffffffffffff60a01b8854161787556001870190518051906001600160401b0382116105d3576103528354611688565b601f8111610790575b50602090601f831160011461072d5761038b92915f9183610521575b50508160011b915f199060031b1c19161790565b90555b51600286015551600385015590516004840180549251610100600160a81b0360089190911b1691151560ff166001600160a81b0319909316929092171790559351805190949060058301906001600160401b0381116105d3576103f18254611688565b601f81116106fd575b506020601f821160011461069757908061042d9260079798995f9261068c5750508160011b915f199060031b1c19161790565b90555b516006820155019051805190600160401b82116105d35782548284558083106105e7575b50602001915f5260205f205f925b8284106104ab57845f5490600161ffff8316019161ffff83116104975761ffff602093169061ffff1916175f55604051908152f35b634e487b7160e01b5f52601160045260245ffd5b805180518051906001600160401b0382116105d3576104ca8554611688565b601f8111610598575b50602090601f831160011461052c5760029361050c846020956001989587955f926105215750508160011b915f199060031b1c19161790565b87555b01518486015501920193019290610462565b015190508d80610377565b90601f19831691865f52815f20925f5b81811061058057508460019794602096946002989488968b9510610568575b505050811b01875561050f565b01515f1960f88460031b161c191690558c808061055b565b9293602060018192878601518155019501930161053c565b6105c390865f5260205f20601f850160051c810191602086106105c9575b601f0160051c01906118cb565b886104d3565b90915081906105b6565b634e487b7160e01b5f52604160045260245ffd5b6001600160ff1b0381168103610497576001600160ff1b038316830361049757835f5260205f209060011b8101908360011b015b8181106106285750610454565b8061063560029254611688565b80610648575b505f60018201550161061b565b601f811160011461065e57505f81555b8761063b565b61067b90825f526001601f60205f20920160051c820191016118cb565b805f525f6020812081835555610658565b015190508980610377565b601f19821697835f52815f20985f5b8181106106e55750916007979899918460019594106106cd575b505050811b019055610430565b01515f1960f88460031b161c191690558880806106c0565b838301518b556001909a0199602093840193016106a6565b61072790835f5260205f20601f840160051c810191602085106105c957601f0160051c01906118cb565b876103fa565b90601f19831691845f52815f20925f5b8181106107785750908460019594939210610760575b505050811b01905561038e565b01515f1960f88460031b161c191690558c8080610753565b9293602060018192878601518155019501930161073d565b6107ba90845f5260205f20601f850160051c810191602086106105c957601f0160051c01906118cb565b8c61035b565b83356001600160401b0381116101d5578201604060231982360301126101d557604051916107ed836116db565b6024820135926001600160401b0384116101d5576044602094936108188695602436918401016117ee565b8352013583820152815201930192610296565b346101d55760203660031901126101d55761ffff610847611634565b165f52600160205260405f2060018060a01b0381541661086960018301611733565b916108e360028201546003830154926004810154600661088b60058401611733565b920154946108ad604051988998895261010060208a0152610100890190611610565b6040880194909452606087015260ff81161515608087015260081c6001600160a01b031660a086015284820360c0860152611610565b9060e08301520390f35b346101d5575f3660031901126101d5577fc81149a7bc4f4f826d5574f07223c9674a867fb41a50420756f01f962bece5a6606060405160208152601b60208201527f557365722077616e747320746f2062757920736f6d657468696e6700000000006040820152a16101d1604051610966606082611712565b603c81527f4576656e7420666f72206120627579206f7264657220746f207468652067697660208201527f656e20627573696e65737320686173206265656e20656d6974746564000000006040820152604051918291602083526020830190611610565b346101d55760203660031901126101d55761ffff6109e6611634565b165f81815260016020908152604080832060028084528285203386529093529220549082015492908311610ad9575f52600260205260405f2060018060a01b0333165f5260205260405f20908154928303928311610497575f8080600381948787550154335af1610a5561184b565b5015610a9b576101d1604051610a6c604082611712565b600e81526d14995dd85c990818db185a5b595960921b6020820152604051918291602083526020830190611610565b60405162461bcd60e51b815260206004820152601660248201527514995dd85c99081d1c985b9cd9995c8819985a5b195960521b6044820152606490fd5b60405162461bcd60e51b8152602060048201526013602482015272496e73756666696369656e7420706f696e747360681b6044820152606490fd5b346101d55760203660031901126101d55761ffff610b30611634565b165f52600360205260405f20805490610b4882611834565b91610b566040519384611712565b8083526020830180925f5260205f205f915b838310610bd5578486604051918291602083019060208452518091526040830191905f5b818110610b9a575050500390f35b825180516001600160a01b03168552602081810151818701526040918201519186019190915286955060609094019390920191600101610b8c565b60036020600192604051610be8816116c0565b848060a01b038654168152848601548382015260028601546040820152815201920192019190610b68565b346101d55760603660031901126101d55761ffff610c2f611634565b16805f526001602052610c4f60018060a01b0360405f205416331461187a565b5f9081526001602052604090206024356002820155604435600390910155005b346101d55760403660031901126101d557610c88611634565b61ffff60243591165f52600360205260405f2080548210156101d557606091610cb09161165b565b5060018060a01b0381541690600260018201549101549060405192835260208301526040820152f35b346101d5575f3660031901126101d5577fe429a4af6c8c8ef768db6238ea11eec0ed3314342fb90870d666ed66d4b2db7f608060405160208152602260208201527f557365722077616e747320746f2073687574646f776e207468656972206576656040820152611b9d60f21b6060820152a16101d1604051610d5d608082611712565b604181527f4576656e7420666f72207465726d696e6174696e6720796f757220627573696e60208201527f657373206f6e204c6f79616c74792d5820686173206265656e20656d697474656040820152601960fa1b6060820152604051918291602083526020830190611610565b346101d5575f3660031901126101d5577fb7c12f8285ec6a5d397fd34564f1de48cf22ac1d4bce7c7903db25760fe4d2386060604051602081526020808201527f557365722077616e747320746f20636c61696d207468656972207265776172646040820152a16101d1604051610e43608082611712565b604181527f4576656e7420746f20636c61696d20796f757220726577617264206f6e20746860208201527f6520676976656e20627573696e65737320686173206265656e20656d697474656040820152601960fa1b6060820152604051918291602083526020830190611610565b346101d5575f3660031901126101d55761ffff5f5416610ed081611834565b90610ede6040519283611712565b808252601f19610eed82611834565b015f5b8181106111a65750505f5b61ffff81168281101561103d57805f52600160205260405f2060405190610f21826116db565b828252600760405191610f33836116f6565b80546001600160a01b03168352610f4c60018201611733565b60208401526002810154604084015260038101546060840152600481015460ff81161515608085015260081c6001600160a01b031660a0840152610f9260058201611733565b60c0840152600681015460e084015201805490610fae82611834565b91610fbc6040519384611712565b80835260208301915f5260205f205f925b82841061100957505050509261ffff9492826001956101006110019501526020820152610ffa82896118b7565b52866118b7565b500116610efb565b6002602060019260405161101c816116db565b61102586611733565b81528486015483820152815201920193019290610fcd565b836040518091602082016020835281518091526040830190602060408260051b8601019301915f905b82821061107557505050500390f35b919390929450603f198682030182526020855161ffff815116835201516040602083015260018060a01b0381511660408301526101006111106110c960208401516101206060870152610160860190611610565b60408401516080860152606084015160a08601526080840151151560c086015260018060a01b0360a08501511660e086015260c0840151603f198683030184870152611610565b9160e0810151610120850152015191610140603f1982840301910152815180825260208201906020808260051b8501019401925f5b8281106111675750505050506020806001929601920192018594939192611066565b9091929394602080600192601f1986820301885288519082806111938451604085526040850190611610565b9301519101529701950193929101611145565b6020906040516111b5816116db565b5f81526040516111c4816116f6565b5f81526060848201525f60408201525f60608201525f60808201525f60a0820152606060c08201525f60e082015260606101008201528382015282828701015201610ef0565b346101d55760203660031901126101d55761ffff611226611634565b16805f52600160205261124660018060a01b0360405f205416331461187a565b805f52600160205260ff600460405f2001541615611278575f908152600160205260409020600401805460ff19169055005b60405162461bcd60e51b815260206004820152601a60248201527f427573696e65737320616c7265616479207368757420646f776e0000000000006044820152606490fd5b346101d55760203660031901126101d55761ffff6112d9611634565b165f526003602052602060405f2054604051908152f35b346101d55760403660031901126101d557611309611634565b61ffff611314611645565b91165f52600260205260405f209060018060a01b03165f52602052602060405f2054604051908152f35b60203660031901126101d55761ffff611355611634565b16805f52600160205260ff600460405f20015416156114ea5766038d7ea4c68000341061149557805f52600360205260405f20604051611394816116c0565b338152602081019134835260408201904282528054600160401b8110156105d3576113c49160018201815561165b565b93909361148257915183546001600160a01b0319166001600160a01b0391909116178355905160018381019190915590516002928301555f8381526020928352604080822033835290935291909120805491820191821061049757555f5260016020525f8080803460018060a01b036040832054165af161144361184b565b501561144b57005b60405162461bcd60e51b815260206004820152600f60248201526e151c985b9cd9995c8819985a5b1959608a1b6044820152606490fd5b634e487b7160e01b5f525f60045260245ffd5b60405162461bcd60e51b815260206004820152602760248201527f4d696e696d756d207472616e73616374696f6e20616d6f756e7420697320302e6044820152660606062408aa8960cb1b6064820152608490fd5b60405162461bcd60e51b8152602060048201526013602482015272427573696e657373206e6f742061637469766560681b6044820152606490fd5b346101d5575f3660031901126101d55760808160207f72530feb7b095b36edc3c129acf8a8c75831d72a1b71b62737729b54e9b9794a9352602160208201527f557365722077616e747320746f207265676973746572206120627573696e65736040820152607360f81b6060820152a16101d16040516115a6608082611712565b604181527f4576656e7420666f72207265676973746572696e6720796f757220627573696e60208201527f657373206f6e204c6f79616c74792d5820686173206265656e20656d697474656040820152601960fa1b60608201526040519182916020835260208301905b805180835260209291819084018484015e5f828201840152601f01601f1916010190565b6004359061ffff821682036101d557565b602435906001600160a01b03821682036101d557565b8054821015611674575f52600360205f20910201905f90565b634e487b7160e01b5f52603260045260245ffd5b90600182811c921680156116b6575b60208310146116a257565b634e487b7160e01b5f52602260045260245ffd5b91607f1691611697565b606081019081106001600160401b038211176105d357604052565b604081019081106001600160401b038211176105d357604052565b61012081019081106001600160401b038211176105d357604052565b90601f801991011681019081106001600160401b038211176105d357604052565b9060405191825f82549261174684611688565b80845293600181169081156117b1575060011461176d575b5061176b92500383611712565b565b90505f9291925260205f20905f915b81831061179557505090602061176b928201015f61175e565b602091935080600191548385890101520191019091849261177c565b90506020925061176b94915060ff191682840152151560051b8201015f61175e565b6001600160401b0381116105d357601f01601f191660200190565b81601f820112156101d557803590611805826117d3565b926118136040519485611712565b828452602083830101116101d557815f926020809301838601378301015290565b6001600160401b0381116105d35760051b60200190565b3d15611875573d9061185c826117d3565b9161186a6040519384611712565b82523d5f602084013e565b606090565b1561188157565b60405162461bcd60e51b815260206004820152600e60248201526d139bdd08105d5d1a1bdc9a5e995960921b6044820152606490fd5b80518210156116745760209160051b010190565b8181106118d6575050565b5f81556001016118cb56fea2646970667358221220c4eaa7bee4b6677f465c3e5334e437a66d9d711edd8100e0ddc8bc43bb42237a64736f6c634300081d0033",
    "sourcePath": "/home/shelby/Desktop/FideX/contract/contracts/business.sol",
    "compiler": {
        "name": "solc",
        "version": "0.8.29+commit.ab55807c"
    },
    "functionHashes": {
        "businesses(uint16)": "bf99dc14",
        "buySomething(uint16)": "14353a86",
        "claimReward(uint16)": "a6f873aa",
        "emitBusinessShutdown()": "75d231d2",
        "emitBuy()": "af2a37a2",
        "emitClaimReward()": "63f622f1",
        "emitRegisterBusiness()": "106b3fb0",
        "emitUpdateRewardConfig()": "f2566de7",
        "getBusinesses()": "3ba18d7d",
        "getPoints(uint16,address)": "1e54ca7e",
        "getTransactionCount(uint16)": "23ba09d5",
        "getTransactions(uint16)": "9a28b96d",
        "registerBusiness(string,uint256,uint256,address,string,uint256,(string,uint256)[])": "c604878f",
        "shutdownBusiness(uint16)": "2ac3e8d5",
        "transactions(uint16,uint256)": "7ba6106e",
        "updateRewardConfig(uint16,uint256,uint256)": "9657736b",
        "userPoints(uint16,address)": "149e2864"
    },
    "gasEstimates": {
        "creation": {
            "codeDepositCost": "1284600",
            "executionCost": "25558",
            "totalCost": "1310158"
        },
        "external": {
            "businesses(uint16)": "infinite",
            "buySomething(uint16)": "infinite",
            "claimReward(uint16)": "infinite",
            "emitBusinessShutdown()": "2526",
            "emitBuy()": "2329",
            "emitClaimReward()": "2227",
            "emitRegisterBusiness()": "2334",
            "emitUpdateRewardConfig()": "2699",
            "getBusinesses()": "infinite",
            "getPoints(uint16,address)": "2603",
            "getTransactionCount(uint16)": "2470",
            "getTransactions(uint16)": "infinite",
            "registerBusiness(string,uint256,uint256,address,string,uint256,(string,uint256)[])": "infinite",
            "shutdownBusiness(uint16)": "29015",
            "transactions(uint16,uint256)": "11214",
            "updateRewardConfig(uint16,uint256,uint256)": "46945",
            "userPoints(uint16,address)": "2581"
        }
    }
}